{
  "transactions": [
    {
      "hash": "0x3349f68529a1cec8e6b65ee6650daad560647dac119bcdad48ef482d364c218a",
      "transactionType": "CALL",
      "contractName": "LinkToken",
      "contractAddress": "0x779877A7B0D9E8603169DdbD7836e478b4624789",
      "function": "transferAndCall(address,uint256,bytes):(bool)",
      "arguments": [
        "0x8103B0A8A00be2DDC778e6e7eaa21791Cd364625",
        "3000000000000000000",
        "0x0000000000000000000000000000000000000000000000000000000000000b95"
      ],
      "transaction": {
        "type": "0x02",
        "from": "0x92e5c70dd41824a0617e07271a7e1e81a9bce064",
        "to": "0x779877a7b0d9e8603169ddbd7836e478b4624789",
        "gas": "0x1b43f",
        "value": "0x0",
        "data": "0x4000aea00000000000000000000000008103b0a8a00be2ddc778e6e7eaa21791cd36462500000000000000000000000000000000000000000000000029a2241af62c0000000000000000000000000000000000000000000000000000000000000000006000000000000000000000000000000000000000000000000000000000000000200000000000000000000000000000000000000000000000000000000000000b95",
        "nonce": "0x134",
        "accessList": []
      },
      "additionalContracts": [],
      "isFixedGasLimit": false
    }
  ],
  "receipts": [
    {
      "transactionHash": "0x3349f68529a1cec8e6b65ee6650daad560647dac119bcdad48ef482d364c218a",
      "transactionIndex": "0x5",
      "blockHash": "0xdfa23a6e26b700dfdc0e3daa85df3484ce3c2addac2fe5ffd7c449de934fe3b1",
      "blockNumber": "0x38d6b5",
      "from": "0x92e5c70Dd41824a0617e07271A7E1e81A9BcE064",
      "to": "0x779877A7B0D9E8603169DdbD7836e478b4624789",
      "cumulativeGasUsed": "0x45bdb",
      "gasUsed": "0x12a4a",
      "contractAddress": null,
      "logs": [
        {
          "address": "0x779877A7B0D9E8603169DdbD7836e478b4624789",
          "topics": [
            "0xddf252ad1be2c89b69c2b068fc378daa952ba7f163c4a11628f55a4df523b3ef",
            "0x00000000000000000000000092e5c70dd41824a0617e07271a7e1e81a9bce064",
            "0x0000000000000000000000008103b0a8a00be2ddc778e6e7eaa21791cd364625"
          ],
          "data": "0x00000000000000000000000000000000000000000000000029a2241af62c0000",
          "blockHash": "0xdfa23a6e26b700dfdc0e3daa85df3484ce3c2addac2fe5ffd7c449de934fe3b1",
          "blockNumber": "0x38d6b5",
          "transactionHash": "0x3349f68529a1cec8e6b65ee6650daad560647dac119bcdad48ef482d364c218a",
          "transactionIndex": "0x5",
          "logIndex": "0x4",
          "removed": false
        },
        {
          "address": "0x779877A7B0D9E8603169DdbD7836e478b4624789",
          "topics": [
            "0xe19260aff97b920c7df27010903aeb9c8d2be5d310a2c67824cf3f15396e4c16",
            "0x00000000000000000000000092e5c70dd41824a0617e07271a7e1e81a9bce064",
            "0x0000000000000000000000008103b0a8a00be2ddc778e6e7eaa21791cd364625"
          ],
          "data": "0x00000000000000000000000000000000000000000000000029a2241af62c0000000000000000000000000000000000000000000000000000000000000000004000000000000000000000000000000000000000000000000000000000000000200000000000000000000000000000000000000000000000000000000000000b95",
          "blockHash": "0xdfa23a6e26b700dfdc0e3daa85df3484ce3c2addac2fe5ffd7c449de934fe3b1",
          "blockNumber": "0x38d6b5",
          "transactionHash": "0x3349f68529a1cec8e6b65ee6650daad560647dac119bcdad48ef482d364c218a",
          "transactionIndex": "0x5",
          "logIndex": "0x5",
          "removed": false
        },
        {
          "address": "0x8103B0A8A00be2DDC778e6e7eaa21791Cd364625",
          "topics": [
            "0xd39ec07f4e209f627a4c427971473820dc129761ba28de8906bd56f57101d4f8",
            "0x0000000000000000000000000000000000000000000000000000000000000b95"
          ],
          "data": "0x000000000000000000000000000000000000000000000000000000000000000000000000000000000000000000000000000000000000000029a2241af62c0000",
          "blockHash": "0xdfa23a6e26b700dfdc0e3daa85df3484ce3c2addac2fe5ffd7c449de934fe3b1",
          "blockNumber": "0x38d6b5",
          "transactionHash": "0x3349f68529a1cec8e6b65ee6650daad560647dac119bcdad48ef482d364c218a",
          "transactionIndex": "0x5",
          "logIndex": "0x6",
          "removed": false
        }
      ],
      "status": "0x1",
      "logsBloom": "0x0000001400000000000020000000000000000000000000020000000002000000000000000000800000000000000000000000000000000000000000000000000000000000000000000000000800000000000000000000000000002000000000000000000000000000000000000000000000000000400000000000001000000000000000000c000120000000000000800010000020000000000000000000000000000000000000000000000000100000000000000000000000000400000000000000010002000000000000000000008000000000000000000100000000000000000000000000000000000000000000000000000040000000000000000000000000",
      "type": "0x2",
      "effectiveGasPrice": "0xb2d18e50"
    }
  ],
  "libraries": [],
  "pending": [],
  "returns": {},
  "timestamp": 1687184068,
  "chain": 11155111,
  "multi": false,
  "commit": "7c66f67"
}