{
  "transactions": [
    {
      "hash": "0xe5f5f1401159f526eeb2aca6ef779d6411d4bc0d6eac28942180000bbd15a656",
      "transactionType": "CALL",
      "contractName": "LinkToken",
      "contractAddress": "0x779877A7B0D9E8603169DdbD7836e478b4624789",
      "function": "transferAndCall(address,uint256,bytes):(bool)",
      "arguments": [
        "0x8103B0A8A00be2DDC778e6e7eaa21791Cd364625",
        "3000000000000000000",
        "0x0000000000000000000000000000000000000000000000000000000000000b65"
      ],
      "transaction": {
        "type": "0x02",
        "from": "0x49d214291b14373292a66c4dfa4d8e25a99f9a88",
        "to": "0x779877a7b0d9e8603169ddbd7836e478b4624789",
        "gas": "0x1b43f",
        "value": "0x0",
        "data": "0x4000aea00000000000000000000000008103b0a8a00be2ddc778e6e7eaa21791cd36462500000000000000000000000000000000000000000000000029a2241af62c0000000000000000000000000000000000000000000000000000000000000000006000000000000000000000000000000000000000000000000000000000000000200000000000000000000000000000000000000000000000000000000000000b65",
        "nonce": "0x3",
        "accessList": []
      },
      "additionalContracts": [],
      "isFixedGasLimit": false
    }
  ],
  "receipts": [],
  "libraries": [],
  "pending": [
    "0xe5f5f1401159f526eeb2aca6ef779d6411d4bc0d6eac28942180000bbd15a656"
  ],
  "returns": {},
  "timestamp": 1687030986,
  "chain": 11155111,
  "multi": false,
  "commit": "058001f"
}